{
  "contractName": "CryptoIPL",
  "abi": [
    {
      "constant": true,
      "inputs": [],
      "name": "name",
      "outputs": [
        {
          "name": "",
          "type": "string"
        }
      ],
      "payable": false,
      "stateMutability": "pure",
      "type": "function"
    },
    {
      "constant": false,
      "inputs": [
        {
          "name": "_to",
          "type": "address"
        },
        {
          "name": "_tokenId",
          "type": "uint256"
        }
      ],
      "name": "approve",
      "outputs": [],
      "payable": false,
      "stateMutability": "nonpayable",
      "type": "function"
    },
    {
      "constant": true,
      "inputs": [],
      "name": "ceoAddress",
      "outputs": [
        {
          "name": "",
          "type": "address"
        }
      ],
      "payable": false,
      "stateMutability": "view",
      "type": "function"
    },
    {
      "constant": false,
      "inputs": [
        {
          "name": "_to",
          "type": "address"
        }
      ],
      "name": "payout",
      "outputs": [],
      "payable": false,
      "stateMutability": "nonpayable",
      "type": "function"
    },
    {
      "constant": true,
      "inputs": [],
      "name": "implementsERC721",
      "outputs": [
        {
          "name": "",
          "type": "bool"
        }
      ],
      "payable": false,
      "stateMutability": "pure",
      "type": "function"
    },
    {
      "constant": true,
      "inputs": [],
      "name": "totalSupply",
      "outputs": [
        {
          "name": "total",
          "type": "uint256"
        }
      ],
      "payable": false,
      "stateMutability": "view",
      "type": "function"
    },
    {
      "constant": true,
      "inputs": [
        {
          "name": "_tokenId",
          "type": "uint256"
        }
      ],
      "name": "getParticipant",
      "outputs": [
        {
          "name": "participantName",
          "type": "string"
        },
        {
          "name": "sellingPrice",
          "type": "uint256"
        },
        {
          "name": "owner",
          "type": "address"
        }
      ],
      "payable": false,
      "stateMutability": "view",
      "type": "function"
    },
    {
      "constant": true,
      "inputs": [],
      "name": "createdPromoCount",
      "outputs": [
        {
          "name": "",
          "type": "uint256"
        }
      ],
      "payable": false,
      "stateMutability": "view",
      "type": "function"
    },
    {
      "constant": false,
      "inputs": [
        {
          "name": "_from",
          "type": "address"
        },
        {
          "name": "_to",
          "type": "address"
        },
        {
          "name": "_tokenId",
          "type": "uint256"
        }
      ],
      "name": "transferFrom",
      "outputs": [],
      "payable": false,
      "stateMutability": "nonpayable",
      "type": "function"
    },
    {
      "constant": false,
      "inputs": [
        {
          "name": "_newCEO",
          "type": "address"
        }
      ],
      "name": "setCEO",
      "outputs": [],
      "payable": false,
      "stateMutability": "nonpayable",
      "type": "function"
    },
    {
      "constant": false,
      "inputs": [
        {
          "name": "_newCOO",
          "type": "address"
        }
      ],
      "name": "setCOO",
      "outputs": [],
      "payable": false,
      "stateMutability": "nonpayable",
      "type": "function"
    },
    {
      "constant": true,
      "inputs": [
        {
          "name": "",
          "type": "uint256"
        }
      ],
      "name": "participantToOwner",
      "outputs": [
        {
          "name": "",
          "type": "address"
        }
      ],
      "payable": false,
      "stateMutability": "view",
      "type": "function"
    },
    {
      "constant": true,
      "inputs": [
        {
          "name": "_tokenId",
          "type": "uint256"
        }
      ],
      "name": "ownerOf",
      "outputs": [
        {
          "name": "owner",
          "type": "address"
        }
      ],
      "payable": false,
      "stateMutability": "view",
      "type": "function"
    },
    {
      "constant": true,
      "inputs": [
        {
          "name": "_owner",
          "type": "address"
        }
      ],
      "name": "balanceOf",
      "outputs": [
        {
          "name": "balance",
          "type": "uint256"
        }
      ],
      "payable": false,
      "stateMutability": "view",
      "type": "function"
    },
    {
      "constant": false,
      "inputs": [
        {
          "name": "_name",
          "type": "string"
        },
        {
          "name": "_price",
          "type": "uint256"
        },
        {
          "name": "_owner",
          "type": "address"
        }
      ],
      "name": "createPromoParticipant",
      "outputs": [],
      "payable": false,
      "stateMutability": "nonpayable",
      "type": "function"
    },
    {
      "constant": true,
      "inputs": [
        {
          "name": "_owner",
          "type": "address"
        }
      ],
      "name": "tokensOfOwner",
      "outputs": [
        {
          "name": "ownerTokens",
          "type": "uint256[]"
        }
      ],
      "payable": false,
      "stateMutability": "view",
      "type": "function"
    },
    {
      "constant": true,
      "inputs": [],
      "name": "symbol",
      "outputs": [
        {
          "name": "",
          "type": "string"
        }
      ],
      "payable": false,
      "stateMutability": "pure",
      "type": "function"
    },
    {
      "constant": true,
      "inputs": [],
      "name": "NAME",
      "outputs": [
        {
          "name": "",
          "type": "string"
        }
      ],
      "payable": false,
      "stateMutability": "view",
      "type": "function"
    },
    {
      "constant": false,
      "inputs": [
        {
          "name": "_to",
          "type": "address"
        },
        {
          "name": "_tokenId",
          "type": "uint256"
        }
      ],
      "name": "transfer",
      "outputs": [],
      "payable": false,
      "stateMutability": "nonpayable",
      "type": "function"
    },
    {
      "constant": true,
      "inputs": [],
      "name": "cooAddress",
      "outputs": [
        {
          "name": "",
          "type": "address"
        }
      ],
      "payable": false,
      "stateMutability": "view",
      "type": "function"
    },
    {
      "constant": false,
      "inputs": [
        {
          "name": "_tokenId",
          "type": "uint256"
        }
      ],
      "name": "takeOwnership",
      "outputs": [],
      "payable": false,
      "stateMutability": "nonpayable",
      "type": "function"
    },
    {
      "constant": true,
      "inputs": [
        {
          "name": "_tokenId",
          "type": "uint256"
        }
      ],
      "name": "priceOf",
      "outputs": [
        {
          "name": "",
          "type": "uint256"
        }
      ],
      "payable": false,
      "stateMutability": "view",
      "type": "function"
    },
    {
      "constant": false,
      "inputs": [
        {
          "name": "_name",
          "type": "string"
        }
      ],
      "name": "createContractParticipant",
      "outputs": [],
      "payable": false,
      "stateMutability": "nonpayable",
      "type": "function"
    },
    {
      "constant": true,
      "inputs": [
        {
          "name": "",
          "type": "address"
        }
      ],
      "name": "ownershipTokenCount",
      "outputs": [
        {
          "name": "",
          "type": "uint256"
        }
      ],
      "payable": false,
      "stateMutability": "view",
      "type": "function"
    },
    {
      "constant": true,
      "inputs": [
        {
          "name": "",
          "type": "uint256"
        }
      ],
      "name": "participantToApproved",
      "outputs": [
        {
          "name": "",
          "type": "address"
        }
      ],
      "payable": false,
      "stateMutability": "view",
      "type": "function"
    },
    {
      "constant": false,
      "inputs": [
        {
          "name": "_tokenId",
          "type": "uint256"
        }
      ],
      "name": "purchase",
      "outputs": [],
      "payable": true,
      "stateMutability": "payable",
      "type": "function"
    },
    {
      "constant": true,
      "inputs": [],
      "name": "SYMBOL",
      "outputs": [
        {
          "name": "",
          "type": "string"
        }
      ],
      "payable": false,
      "stateMutability": "view",
      "type": "function"
    },
    {
      "inputs": [],
      "payable": false,
      "stateMutability": "nonpayable",
      "type": "constructor"
    },
    {
      "anonymous": false,
      "inputs": [
        {
          "indexed": false,
          "name": "tokenId",
          "type": "uint256"
        },
        {
          "indexed": false,
          "name": "name",
          "type": "string"
        },
        {
          "indexed": false,
          "name": "owner",
          "type": "address"
        }
      ],
      "name": "Intro",
      "type": "event"
    },
    {
      "anonymous": false,
      "inputs": [
        {
          "indexed": false,
          "name": "tokenId",
          "type": "uint256"
        },
        {
          "indexed": false,
          "name": "oldPrice",
          "type": "uint256"
        },
        {
          "indexed": false,
          "name": "newPrice",
          "type": "uint256"
        },
        {
          "indexed": false,
          "name": "oldOwner",
          "type": "address"
        },
        {
          "indexed": false,
          "name": "newOwner",
          "type": "address"
        },
        {
          "indexed": false,
          "name": "name",
          "type": "string"
        }
      ],
      "name": "TokenSold",
      "type": "event"
    },
    {
      "anonymous": false,
      "inputs": [
        {
          "indexed": false,
          "name": "from",
          "type": "address"
        },
        {
          "indexed": false,
          "name": "to",
          "type": "address"
        },
        {
          "indexed": false,
          "name": "tokenId",
          "type": "uint256"
        }
      ],
      "name": "Transfer",
      "type": "event"
    },
    {
      "anonymous": false,
      "inputs": [
        {
          "indexed": true,
          "name": "owner",
          "type": "address"
        },
        {
          "indexed": true,
          "name": "approved",
          "type": "address"
        },
        {
          "indexed": false,
          "name": "tokenId",
          "type": "uint256"
        }
      ],
      "name": "Approval",
      "type": "event"
    }
  ],
  "bytecode": "0x606060405266071afd498d000060005566f8b0a10e470000600155670429d069189e0000600255341561003157600080fd5b33600760006101000a81548173ffffffffffffffffffffffffffffffffffffffff021916908373ffffffffffffffffffffffffffffffffffffffff16021790555033600860006101000a81548173ffffffffffffffffffffffffffffffffffffffff021916908373ffffffffffffffffffffffffffffffffffffffff16021790555061209c806100c26000396000f30060606040526004361061015f576000357c0100000000000000000000000000000000000000000000000000000000900463ffffffff16806306fdde0314610164578063095ea7b3146101f25780630a0f8168146102345780630b7e9c44146102895780631051db34146102c257806318160ddd146102ef5780631b9db2ef146103185780631c0b397c146103ee57806323b872dd1461041757806327d7874c146104785780632ba73c15146104b1578063488d422e146104ea5780636352211e1461054d57806370a08231146105b05780637ddc38d0146105fd5780638462151c1461068257806395d89b4114610710578063a3f4df7e1461079e578063a9059cbb1461082c578063b047fb501461086e578063b2e6ceeb146108c3578063b9186d7d146108e6578063bcadad6a1461091d578063cec21acb1461097a578063d5009507146109c7578063efef39a114610a2a578063f76f8d7814610a42575b600080fd5b341561016f57600080fd5b610177610ad0565b6040518080602001828103825283818151815260200191508051906020019080838360005b838110156101b757808201518184015260208101905061019c565b50505050905090810190601f1680156101e45780820380516001836020036101000a031916815260200191505b509250505060405180910390f35b34156101fd57600080fd5b610232600480803573ffffffffffffffffffffffffffffffffffffffff16906020019091908035906020019091905050610b13565b005b341561023f57600080fd5b610247610c3b565b604051808273ffffffffffffffffffffffffffffffffffffffff1673ffffffffffffffffffffffffffffffffffffffff16815260200191505060405180910390f35b341561029457600080fd5b6102c0600480803573ffffffffffffffffffffffffffffffffffffffff16906020019091905050610c61565b005b34156102cd57600080fd5b6102d5610cc9565b604051808215151515815260200191505060405180910390f35b34156102fa57600080fd5b610302610cd2565b6040518082815260200191505060405180910390f35b341561032357600080fd5b6103396004808035906020019091905050610cdf565b60405180806020018481526020018373ffffffffffffffffffffffffffffffffffffffff1673ffffffffffffffffffffffffffffffffffffffff168152602001828103825285818151815260200191508051906020019080838360005b838110156103b1578082015181840152602081019050610396565b50505050905090810190601f1680156103de5780820380516001836020036101000a031916815260200191505b5094505050505060405180910390f35b34156103f957600080fd5b610401610dfb565b6040518082815260200191505060405180910390f35b341561042257600080fd5b610476600480803573ffffffffffffffffffffffffffffffffffffffff1690602001909190803573ffffffffffffffffffffffffffffffffffffffff16906020019091908035906020019091905050610e01565b005b341561048357600080fd5b6104af600480803573ffffffffffffffffffffffffffffffffffffffff16906020019091905050610e4f565b005b34156104bc57600080fd5b6104e8600480803573ffffffffffffffffffffffffffffffffffffffff16906020019091905050610eef565b005b34156104f557600080fd5b61050b6004808035906020019091905050610f8f565b604051808273ffffffffffffffffffffffffffffffffffffffff1673ffffffffffffffffffffffffffffffffffffffff16815260200191505060405180910390f35b341561055857600080fd5b61056e6004808035906020019091905050610fc2565b604051808273ffffffffffffffffffffffffffffffffffffffff1673ffffffffffffffffffffffffffffffffffffffff16815260200191505060405180910390f35b34156105bb57600080fd5b6105e7600480803573ffffffffffffffffffffffffffffffffffffffff1690602001909190505061103b565b6040518082815260200191505060405180910390f35b341561060857600080fd5b610680600480803590602001908201803590602001908080601f0160208091040260200160405190810160405280939291908181526020018383808284378201915050505050509190803590602001909190803573ffffffffffffffffffffffffffffffffffffffff16906020019091905050611084565b005b341561068d57600080fd5b6106b9600480803573ffffffffffffffffffffffffffffffffffffffff16906020019091905050611185565b6040518080602001828103825283818151815260200191508051906020019060200280838360005b838110156106fc5780820151818401526020810190506106e1565b505050509050019250505060405180910390f35b341561071b57600080fd5b6107236112bc565b6040518080602001828103825283818151815260200191508051906020019080838360005b83811015610763578082015181840152602081019050610748565b50505050905090810190601f1680156107905780820380516001836020036101000a031916815260200191505b509250505060405180910390f35b34156107a957600080fd5b6107b16112ff565b6040518080602001828103825283818151815260200191508051906020019080838360005b838110156107f15780820151818401526020810190506107d6565b50505050905090810190601f16801561081e5780820380516001836020036101000a031916815260200191505b509250505060405180910390f35b341561083757600080fd5b61086c600480803573ffffffffffffffffffffffffffffffffffffffff16906020019091908035906020019091905050611338565b005b341561087957600080fd5b610881611370565b604051808273ffffffffffffffffffffffffffffffffffffffff1673ffffffffffffffffffffffffffffffffffffffff16815260200191505060405180910390f35b34156108ce57600080fd5b6108e46004808035906020019091905050611396565b005b34156108f157600080fd5b610907600480803590602001909190505061140b565b6040518082815260200191505060405180910390f35b341561092857600080fd5b610978600480803590602001908201803590602001908080601f01602080910402602001604051908101604052809392919081815260200183838082843782019150505050505091905050611428565b005b341561098557600080fd5b6109b1600480803573ffffffffffffffffffffffffffffffffffffffff16906020019091905050611494565b6040518082815260200191505060405180910390f35b34156109d257600080fd5b6109e860048080359060200190919050506114ac565b604051808273ffffffffffffffffffffffffffffffffffffffff1673ffffffffffffffffffffffffffffffffffffffff16815260200191505060405180910390f35b610a4060048080359060200190919050506114df565b005b3415610a4d57600080fd5b610a5561188b565b6040518080602001828103825283818151815260200191508051906020019080838360005b83811015610a95578082015181840152602081019050610a7a565b50505050905090810190601f168015610ac25780820380516001836020036101000a031916815260200191505b509250505060405180910390f35b610ad8611ed2565b6040805190810160405280600981526020017f43727970746f49504c0000000000000000000000000000000000000000000000815250905090565b6003600082815260200190815260200160002060009054906101000a900473ffffffffffffffffffffffffffffffffffffffff1673ffffffffffffffffffffffffffffffffffffffff163373ffffffffffffffffffffffffffffffffffffffff16141515610b8057600080fd5b816005600083815260200190815260200160002060006101000a81548173ffffffffffffffffffffffffffffffffffffffff021916908373ffffffffffffffffffffffffffffffffffffffff1602179055508173ffffffffffffffffffffffffffffffffffffffff163373ffffffffffffffffffffffffffffffffffffffff167f8c5be1e5ebec7d5bd14f71427d1e84f3dd0314c0f7b2291e5b200ac8c7c3b925836040518082815260200191505060405180910390a35050565b600760009054906101000a900473ffffffffffffffffffffffffffffffffffffffff1681565b600760009054906101000a900473ffffffffffffffffffffffffffffffffffffffff1673ffffffffffffffffffffffffffffffffffffffff163373ffffffffffffffffffffffffffffffffffffffff16141515610cbd57600080fd5b610cc6816118c4565b50565b60006001905090565b6000600a80549050905090565b610ce7611ed2565b6000806000600a85815481101515610cfb57fe5b90600052602060002090019050806000018054600181600116156101000203166002900480601f016020809104026020016040519081016040528092919081815260200182805460018160011615610100020316600290048015610da05780601f10610d7557610100808354040283529160200191610da0565b820191906000526020600020905b815481529060010190602001808311610d8357829003601f168201915b50505050509350600660008681526020019081526020016000205492506003600086815260200190815260200160002060009054906101000a900473ffffffffffffffffffffffffffffffffffffffff169150509193909250565b60095481565b610e0b83826119d2565b1515610e1657600080fd5b610e208282611a3e565b1515610e2b57600080fd5b610e3482611aaa565b1515610e3f57600080fd5b610e4a838383611ae3565b505050565b600760009054906101000a900473ffffffffffffffffffffffffffffffffffffffff1673ffffffffffffffffffffffffffffffffffffffff163373ffffffffffffffffffffffffffffffffffffffff16141515610eab57600080fd5b80600760006101000a81548173ffffffffffffffffffffffffffffffffffffffff021916908373ffffffffffffffffffffffffffffffffffffffff16021790555050565b600860009054906101000a900473ffffffffffffffffffffffffffffffffffffffff1673ffffffffffffffffffffffffffffffffffffffff163373ffffffffffffffffffffffffffffffffffffffff16141515610f4b57600080fd5b80600860006101000a81548173ffffffffffffffffffffffffffffffffffffffff021916908373ffffffffffffffffffffffffffffffffffffffff16021790555050565b60036020528060005260406000206000915054906101000a900473ffffffffffffffffffffffffffffffffffffffff1681565b60006003600083815260200190815260200160002060009054906101000a900473ffffffffffffffffffffffffffffffffffffffff169050600073ffffffffffffffffffffffffffffffffffffffff168173ffffffffffffffffffffffffffffffffffffffff161415151561103657600080fd5b919050565b6000600460008373ffffffffffffffffffffffffffffffffffffffff1673ffffffffffffffffffffffffffffffffffffffff168152602001908152602001600020549050919050565b6000600860009054906101000a900473ffffffffffffffffffffffffffffffffffffffff1673ffffffffffffffffffffffffffffffffffffffff163373ffffffffffffffffffffffffffffffffffffffff161415156110e257600080fd5b6103e86009541015156110f457600080fd5b819050600073ffffffffffffffffffffffffffffffffffffffff168173ffffffffffffffffffffffffffffffffffffffff16141561115257600860009054906101000a900473ffffffffffffffffffffffffffffffffffffffff1690505b6000831115156111625760005492505b60096000815480929190600101919050555061117f848484611ce5565b50505050565b61118d611ee6565b6000611197611ee6565b60008060006111a58761103b565b945060008514156111d75760006040518059106111bf5750595b908082528060200260200182016040525095506112b2565b846040518059106111e55750595b90808252806020026020018201604052509350611200610cd2565b925060009150600090505b82811115156112ae578673ffffffffffffffffffffffffffffffffffffffff166003600083815260200190815260200160002060009054906101000a900473ffffffffffffffffffffffffffffffffffffffff1673ffffffffffffffffffffffffffffffffffffffff1614156112a15780848381518110151561128a57fe5b906020019060200201818152505081806001019250505b808060010191505061120b565b8395505b5050505050919050565b6112c4611ed2565b6040805190810160405280600881526020017f49504c546f6b656e000000000000000000000000000000000000000000000000815250905090565b6040805190810160405280600981526020017f43727970746f49504c000000000000000000000000000000000000000000000081525081565b61134233826119d2565b151561134d57600080fd5b61135682611aaa565b151561136157600080fd5b61136c338383611ae3565b5050565b600860009054906101000a900473ffffffffffffffffffffffffffffffffffffffff1681565b6000806003600084815260200190815260200160002060009054906101000a900473ffffffffffffffffffffffffffffffffffffffff1691503390506113db81611aaa565b15156113e657600080fd5b6113f08184611a3e565b15156113fb57600080fd5b611406828285611ae3565b505050565b600060066000838152602001908152602001600020549050919050565b600860009054906101000a900473ffffffffffffffffffffffffffffffffffffffff1673ffffffffffffffffffffffffffffffffffffffff163373ffffffffffffffffffffffffffffffffffffffff1614151561148457600080fd5b6114918160005430611ce5565b50565b60046020528060005260406000206000915090505481565b60056020528060005260406000206000915054906101000a900473ffffffffffffffffffffffffffffffffffffffff1681565b60008060008060006003600087815260200190815260200160002060009054906101000a900473ffffffffffffffffffffffffffffffffffffffff169450339350600660008781526020019081526020016000205492508373ffffffffffffffffffffffffffffffffffffffff168573ffffffffffffffffffffffffffffffffffffffff161415151561157157600080fd5b61157a84611aaa565b151561158557600080fd5b82341015151561159457600080fd5b6115a96115a284605e611e63565b6064611e9e565b91506115b53484611eb9565b90506001548310156115f2576115d66115cf846064611e63565b605e611e9e565b600660008881526020019081526020016000208190555061165b565b60025483101561162d5761161161160a846078611e63565b605e611e9e565b600660008881526020019081526020016000208190555061165a565b61164261163b846073611e63565b605e611e9e565b60066000888152602001908152602001600020819055505b5b611666858588611ae3565b3073ffffffffffffffffffffffffffffffffffffffff168573ffffffffffffffffffffffffffffffffffffffff161415156116dc578473ffffffffffffffffffffffffffffffffffffffff166108fc839081150290604051600060405180830381858888f1935050505015156116db57600080fd5b5b7e8201e7bcbf010c2c07de59d6e97cb7e3cf67a46125c49cbc89b9d2cde1f48f8684600660008a8152602001908152602001600020548888600a8c81548110151561172357fe5b9060005260206000209001600001604051808781526020018681526020018581526020018473ffffffffffffffffffffffffffffffffffffffff1673ffffffffffffffffffffffffffffffffffffffff1681526020018373ffffffffffffffffffffffffffffffffffffffff1673ffffffffffffffffffffffffffffffffffffffff168152602001806020018281038252838181546001816001161561010002031660029004815260200191508054600181600116156101000203166002900480156118305780601f1061180557610100808354040283529160200191611830565b820191906000526020600020905b81548152906001019060200180831161181357829003601f168201915b505097505050505050505060405180910390a13373ffffffffffffffffffffffffffffffffffffffff166108fc829081150290604051600060405180830381858888f19350505050151561188357600080fd5b505050505050565b6040805190810160405280600881526020017f49504c546f6b656e00000000000000000000000000000000000000000000000081525081565b600073ffffffffffffffffffffffffffffffffffffffff168173ffffffffffffffffffffffffffffffffffffffff16141561197757600760009054906101000a900473ffffffffffffffffffffffffffffffffffffffff1673ffffffffffffffffffffffffffffffffffffffff166108fc3073ffffffffffffffffffffffffffffffffffffffff16319081150290604051600060405180830381858888f19350505050151561197257600080fd5b6119cf565b8073ffffffffffffffffffffffffffffffffffffffff166108fc3073ffffffffffffffffffffffffffffffffffffffff16319081150290604051600060405180830381858888f1935050505015156119ce57600080fd5b5b50565b60006003600083815260200190815260200160002060009054906101000a900473ffffffffffffffffffffffffffffffffffffffff1673ffffffffffffffffffffffffffffffffffffffff168373ffffffffffffffffffffffffffffffffffffffff1614905092915050565b60008273ffffffffffffffffffffffffffffffffffffffff166005600084815260200190815260200160002060009054906101000a900473ffffffffffffffffffffffffffffffffffffffff1673ffffffffffffffffffffffffffffffffffffffff1614905092915050565b60008073ffffffffffffffffffffffffffffffffffffffff168273ffffffffffffffffffffffffffffffffffffffff1614159050919050565b600460008373ffffffffffffffffffffffffffffffffffffffff1673ffffffffffffffffffffffffffffffffffffffff16815260200190815260200160002060008154809291906001019190505550816003600083815260200190815260200160002060006101000a81548173ffffffffffffffffffffffffffffffffffffffff021916908373ffffffffffffffffffffffffffffffffffffffff160217905550600073ffffffffffffffffffffffffffffffffffffffff168373ffffffffffffffffffffffffffffffffffffffff16141515611c4157600460008473ffffffffffffffffffffffffffffffffffffffff1673ffffffffffffffffffffffffffffffffffffffff16815260200190815260200160002060008154809291906001900391905055506005600082815260200190815260200160002060006101000a81549073ffffffffffffffffffffffffffffffffffffffff02191690555b7fddf252ad1be2c89b69c2b068fc378daa952ba7f163c4a11628f55a4df523b3ef838383604051808473ffffffffffffffffffffffffffffffffffffffff1673ffffffffffffffffffffffffffffffffffffffff1681526020018373ffffffffffffffffffffffffffffffffffffffff1673ffffffffffffffffffffffffffffffffffffffff168152602001828152602001935050505060405180910390a1505050565b611ced611efa565b60006020604051908101604052808681525091506001600a8054806001018281611d179190611f14565b916000526020600020900160008590919091506000820151816000019080519060200190611d46929190611f40565b5050500390508063ffffffff1681141515611d6057600080fd5b7f90941107b803533189a050af2b7261dbda904305ae8abfbab1f98e47a36a767e81868560405180848152602001806020018373ffffffffffffffffffffffffffffffffffffffff1673ffffffffffffffffffffffffffffffffffffffff168152602001828103825284818151815260200191508051906020019080838360005b83811015611dfc578082015181840152602081019050611de1565b50505050905090810190601f168015611e295780820380516001836020036101000a031916815260200191505b5094505050505060405180910390a1836006600083815260200190815260200160002081905550611e5c60008483611ae3565b5050505050565b6000806000841415611e785760009150611e97565b8284029050828482811515611e8957fe5b04141515611e9357fe5b8091505b5092915050565b6000808284811515611eac57fe5b0490508091505092915050565b6000828211151515611ec757fe5b818303905092915050565b602060405190810160405280600081525090565b602060405190810160405280600081525090565b602060405190810160405280611f0e611fc0565b81525090565b815481835581811511611f3b57818360005260206000209182019101611f3a9190611fd4565b5b505050565b828054600181600116156101000203166002900490600052602060002090601f016020900481019282601f10611f8157805160ff1916838001178555611faf565b82800160010185558215611faf579182015b82811115611fae578251825591602001919060010190611f93565b5b509050611fbc9190612003565b5090565b602060405190810160405280600081525090565b61200091905b80821115611ffc5760008082016000611ff39190612028565b50600101611fda565b5090565b90565b61202591905b80821115612021576000816000905550600101612009565b5090565b90565b50805460018160011615610100020316600290046000825580601f1061204e575061206d565b601f01602090049060005260206000209081019061206c9190612003565b5b505600a165627a7a723058204701c813ac6c4aa51f46fdb01b6cb3b5262aa2a3c2944d22e22b335a8b47c44e0029",
  "source": "pragma solidity ^0.4.18;\n\nimport \"./ERC721.sol\";\nimport \"./SafeMath.sol\";\n/// @title CryptoIPL an Ethereum game, based on ERC721 Non Fungible token..\n/// @author Dheeraj Pal pdheeraj368@gmail.com.\n/// @notice This is IPL game for crypto enthusiast.\ncontract CryptoIPL is ERC721 {\n    \n    /*** LIBRARIES ***/\n    /// SafeMath for secure calculation purpose.\n    using SafeMath for uint256;\n    \n    \n    /*** EVENTS ***/\n    // Events can be captured to notify.\n    \n    /// @dev Intro event: fired when new participant indroduced.\n    event Intro(uint256 tokenId, string name, address owner);\n    \n    /// @dev TokenSold event: fired when token is sold.\n    event TokenSold(uint256 tokenId, uint256 oldPrice, uint256 newPrice, address oldOwner, address newOwner, string name);\n    \n    /// @dev Transfer event: defined is the current draft of ERC721.\n    /// ownership is assigned including owner.\n    event Transfer(address from, address to, uint256 tokenId);\n    \n    /*** CONSTANTS ***/\n    /// Constants to be used for Dapp.\n    \n    /// @notice Name and Symbol of the non fungible token as per ERC721.\n    string public constant NAME = \"CryptoIPL\";\n    string public constant SYMBOL = \"IPLToken\";\n    \n    uint256 private startingPrice = 0.002 ether;\n    uint256 private constant PROMO_CREATION_LIMIT = 1000;\n    uint256 private firstStepLimit = 0.07 ether;\n    uint256 private secondStepLimit = 0.3 ether;\n    \n    /*** STORAGE ***/\n    /// State variale to be used for the Dapp.\n    \n    /// @dev : mapping from IPL participant to its owner.\n    mapping (uint256 => address) public participantToOwner;\n    \n    /// @dev : mapping from address to count to IPL participant it owns.\n    /// used internally for balanceOf().\n    mapping (address => uint256) public ownershipTokenCount;\n    \n    /// @dev : mapping from participant to Owner who is authorised to call\n    /// transferFrom(). each participant can have only one approved address\n    /// at a time.\n    mapping(uint256 => address) public participantToApproved;\n    \n    /// @dev : mapping from participant to selling price.\n    mapping(uint256 => uint256) private participantToPrice;\n    \n    \n    /// address of the accounts that can execute actions within roles.\n    address public ceoAddress;\n    address public cooAddress;\n    \n    \n    uint256 public createdPromoCount;\n    \n    /*** DATATYPES ***/\n    /// Datatypes to be used for Dapp.\n    \n    /// IPL participant.\n    struct Participant {\n        string name;\n    }\n    \n    /// @dev: Array list of all the participant.\n    Participant[] private participants;\n    \n    /*** ACCESS MODIFIERS ***/\n    /// Modifiers to be user for Dapp.\n    \n    /// @dev : Modifier for CEO only functionality.\n    modifier onlyCEO() {\n        require(msg.sender == ceoAddress);\n        _;\n    }\n    \n    /// @dev : Modifier for COO only functionality.\n    modifier onlyCOO() {\n        require(msg.sender == cooAddress);\n        _;\n    }\n    \n    /*** CONSTRUCTER ***/\n    \n    function CryptoIPL() public {\n        ceoAddress = msg.sender;\n        cooAddress = msg.sender;\n    }\n    \n    /*** PUBLIC FUNCTIONS ***/\n    \n    /// @notice : function to grant other address authority to use transferOwnership() and transferFrom().\n    /// @param _to : address to which permission is being given.\n    /// @param _tokenId : participant token Id.\n    /// @dev : as per ERC721 complience.\n    function approve(\n        address _to,\n        uint256 _tokenId\n    ) public {\n        // caller must own the token.\n        require(msg.sender == participantToOwner[_tokenId]);\n            \n        participantToApproved[_tokenId] = _to;\n            \n        // fire approve event.\n        Approval(msg.sender, _to, _tokenId);\n    }\n        \n    /// @notice : get the balance of an address.\n    /// @param _owner : address.\n    /// @dev : required for ERC721 complience.\n    function balanceOf (\n        address _owner    \n    ) public view returns (uint256 balance) {\n        return ownershipTokenCount[_owner];\n    }\n    \n    /// @dev : creates a new promo participant with a given name, price and assign it to an address.\n    function createPromoParticipant(\n        string _name,\n        uint256 _price,\n        address _owner\n    ) public onlyCOO {\n        \n        require(createdPromoCount < PROMO_CREATION_LIMIT);\n        \n        address participantOwner = _owner;\n        \n        if(participantOwner == address(0)) {\n            participantOwner = cooAddress;\n        }\n        \n        if(_price <= 0) {\n            _price = startingPrice;\n        }\n        \n        createdPromoCount++;\n        \n        // function to create participant.\n        _createParticipant(_name, _price, _owner);\n    }\n    \n    /// @dev : create participant with the given name.\n    function createContractParticipant(\n        string _name    \n    ) public onlyCOO {\n        _createParticipant(_name, startingPrice, address(this));\n    }\n    \n    /// @notice : return all the relevant information about a given participant.\n    /// @param _tokenId : participantId.\n    function getParticipant(\n        uint256 _tokenId    \n    ) public view returns (\n        string participantName,\n        uint256 sellingPrice,\n        address owner\n    ) {\n        \n        Participant storage _participant = participants[_tokenId];\n        participantName = _participant.name;\n        sellingPrice = participantToPrice[_tokenId];\n        owner = participantToOwner[_tokenId];\n    }\n    \n    function implementsERC721() public pure returns (bool) {\n        return true;\n    }\n    \n    /// @dev : required for ERC721 complience.\n    function name() public pure returns (string) {\n        return NAME;\n    }\n    \n    /// For querying owner of the participant.\n    /// @param _tokenId : participantId.\n    /// @dev Required for ERC721 participant.\n    function ownerOf (\n        uint256 _tokenId    \n    ) public view returns (\n        address owner\n    ) {\n        owner = participantToOwner[_tokenId];\n        require(owner != address(0));\n    }\n    \n    \n    function payout (\n        address _to\n    ) public onlyCEO {\n        _payout(_to);\n    }\n    \n    /// Allow someone to send some ether and own the participant.\n    /// #param _tokenId : participant id.\n    function purchase (\n        uint256 _tokenId    \n    ) public payable {\n        \n        address oldOwner = participantToOwner[_tokenId];\n        address newOwner = msg.sender;\n        \n        // current selling price of participant.\n        uint256 sellingPrice = participantToPrice[_tokenId];\n        \n        // making sure the owner not selling itself.\n        require(oldOwner != newOwner);\n        \n        // safety check to prevent unexpected 0*0 default.\n        require(_addressNotNull(newOwner));\n        \n        // making sure the price is greater than the selling price.\n        require(msg.value >= sellingPrice);\n        \n        uint256 payment = uint256(SafeMath.div(SafeMath.mul(sellingPrice, 94), 100));\n        uint256 purchaseExcess = SafeMath.sub(msg.value, sellingPrice);\n        \n        // update price.\n        if (sellingPrice < firstStepLimit) {\n            // price increase for first stage.\n            participantToPrice[_tokenId] = uint256(SafeMath.div(SafeMath.mul(sellingPrice, 100), 94));\n        } else if (sellingPrice < secondStepLimit) {\n            //price increase for the second stage.\n            participantToPrice[_tokenId] = uint256(SafeMath.div(SafeMath.mul(sellingPrice, 120), 94));\n        } else {\n            // price increase for the third stage.\n            participantToPrice[_tokenId] = uint256(SafeMath.div(SafeMath.mul(sellingPrice, 115), 94));\n        }\n        \n        _transfer(oldOwner, newOwner, _tokenId);\n        \n        // pay previous owner if its not contract.\n        if (oldOwner != address(this)) {\n            oldOwner.transfer(payment);// 1-0.06\n        }\n        \n        // fire token sold event.\n        TokenSold(_tokenId, sellingPrice, participantToPrice[_tokenId], oldOwner, newOwner, participants[_tokenId].name);\n        \n        msg.sender.transfer(purchaseExcess);        \n        \n    }\n    \n    /// @notice : get price of a participant.\n    /// @param _tokenId : participant id.\n    function priceOf(\n        uint256 _tokenId    \n    ) public view returns (uint256) {\n        return participantToPrice[_tokenId];\n    }\n    \n    /// @dev : assign a new ceo.\n    /// @param _newCEO : address.\n    function setCEO (\n        address _newCEO    \n    ) public onlyCEO {\n        ceoAddress = _newCEO;\n    }\n    \n    /// @dev : assign a new COO.\n    /// @param _newCOO : address.\n    function setCOO (\n        address _newCOO    \n    ) public onlyCOO {\n        cooAddress = _newCOO;\n    }\n    \n    /// @dev : required for ERC721 complience.\n    function symbol() public pure returns (string) {\n        return SYMBOL;\n    }\n    \n    /// @notice : allowed a pre approved token to take ownership of a token.\n    /// @param _tokenId : participant id.\n    /// @dev : required for ERC721 complience.\n    function takeOwnership(\n        uint256 _tokenId    \n    ) public {\n        \n        address oldOwner = participantToOwner[_tokenId];\n        address newOwner = msg.sender;\n        \n        // safety check to prevent against 0*0 defualt.\n        require(_addressNotNull(newOwner));\n        \n        // makng sure the transfer is approved.\n        require(_approved(newOwner, _tokenId));\n        \n        _transfer(oldOwner, newOwner, _tokenId);\n    }\n    \n    /// @param _owner : address.\n    /// @dev : this method must not be called by contract, its fairely expensive\n    /// second it returns dynamic array which is for web3 calls.\n    function tokensOfOwner(\n        address _owner\n    ) public view returns (\n        uint256[] ownerTokens\n    ) {\n        \n        uint256 tokenCount = balanceOf(_owner);\n        if(tokenCount == 0) {\n            // return an empty array.\n            return new uint256[](0);\n        } else {\n            \n            uint256[] memory result  = new uint256[](tokenCount);\n            uint256 totalParticipants = totalSupply();\n            uint256 resultIndex = 0;\n            uint256 participantId;\n            \n            for (participantId = 0; participantId <= totalParticipants; participantId++) {\n                if(participantToOwner[participantId] == _owner) {\n                    result[resultIndex] = participantId;\n                    resultIndex++;\n                }\n            }\n            \n            return result;\n        }\n    }\n    \n    \n    /// querying total supply of tokens.\n    /// required for ERC721 complience.\n    function totalSupply() public view returns (uint256 total) {\n        total = participants.length;\n    }\n    \n    /// owner initiate the transfer of token to other account.\n    /// @param _to : address for the token to be transfered to.\n    /// @param _tokenId : participant id.\n    /// @dev : required for ERC721 complience.\n    function transfer(\n        address _to,\n        uint256 _tokenId\n    ) public {\n        \n        require(_owns(msg.sender, _tokenId));\n        require(_addressNotNull(_to));\n        \n        _transfer(msg.sender, _to, _tokenId);\n    }\n    \n    \n    /// @notice : third party initialte the transfer of token.\n    /// @param _from : address from which transfer has to be done.\n    /// @param _to : address to which the transfer has to be done.\n    /// @dev : required for ERC721 complience.\n    function transferFrom (\n        address _from,\n        address _to,\n        uint256 _tokenId\n    ) public {\n        \n        require(_owns(_from, _tokenId));\n        require(_approved(_to, _tokenId));\n        require(_addressNotNull(_to));\n        \n        _transfer(_from, _to, _tokenId);\n        \n    }\n    \n    /*** PRIVATE FUNCTIONS ***/\n    /// private functions to be user for Dapp.\n    \n    /// safety function to check if address is null or not.\n    function _addressNotNull(\n        address _to\n    ) private pure returns (bool) {\n        return _to != address(0);\n    }\n    \n    /// for checking the approval of transfer for address to participant.\n    function _approved (\n        address _to, \n        uint256 _tokenId\n    ) private view returns (bool) {\n        return participantToApproved[_tokenId] == _to;\n    }\n    \n    \n    /// @dev : for craeting participant.\n    function _createParticipant(\n        string _name,\n        uint256 _price,\n        address _owner\n    ) private {\n        \n        // create memory variable for new participant.\n        Participant memory _participant = Participant({\n            name: _name\n        });\n        \n        // getting the id of participant.\n        uint256 _participantId = participants.push(_participant) -1;\n        \n        // Its never going to happen for 4 billion participant.\n        // but let's just check to be 100% sure.\n        require(_participantId == uint256(uint32(_participantId)));\n        \n        // fire birth event.\n        Intro(_participantId, _name, _owner);\n        \n        participantToPrice[_participantId] = _price;\n        \n        // this will assign ownership and also emit transfer event.\n        // as per ERC721 complience.\n        _transfer(address(0), _owner, _participantId);\n    }\n    \n    /// checking for token ownership.\n    function _owns(\n        address _claimant,\n        uint256 _tokenId\n    ) private view returns (bool) {\n        return _claimant == participantToOwner[_tokenId];\n    }\n    \n    /// for paying out the balance of the contract.\n    function _payout (\n        address _to    \n    ) private {\n        if(_to == address(0)) {\n            ceoAddress.transfer(this.balance);\n        } else {\n            _to.transfer(this.balance);\n        }\n    }\n    \n    /// assign ownership f a participant to an address.\n    function _transfer (\n        address _from,\n        address _to,\n        uint256 _tokenId\n    ) private {\n        // since the number of partcipant is capped we can't overflow this.\n        ownershipTokenCount[_to]++;\n        \n        //transfer ownership.\n        participantToOwner[_tokenId] = _to;\n        \n        // when crated new address it was from 0*0 need to delete.\n        if(_from != address(0)) {\n            ownershipTokenCount[_from]--;\n            // clear the approved ownership as well.\n            delete participantToApproved[_tokenId];\n        }\n        \n        // emit event for new participant transfer.\n        Transfer(_from, _to, _tokenId);\n    }\n    \n}",
  "sourcePath": "/home/dheeraj/work/blockchain/crytoipl/contracts/CryptoIPL.sol",
  "compiler": {
    "name": "solc",
    "version": "0.4.18+commit.9cf6e910.Emscripten.clang"
  },
  "schemaVersion": "1.0.1",
  "updatedAt": "2018-03-05T18:05:46.351Z"
}